{
  "contractName": "CompanyStructCrud",
  "abi": [
    {
      "inputs": [],
      "payable": false,
      "stateMutability": "nonpayable",
      "type": "constructor"
    },
    {
      "anonymous": false,
      "inputs": [
        {
          "indexed": false,
          "internalType": "string",
          "name": "name",
          "type": "string"
        },
        {
          "indexed": false,
          "internalType": "string",
          "name": "current_president",
          "type": "string"
        },
        {
          "indexed": false,
          "internalType": "uint256",
          "name": "populations",
          "type": "uint256"
        },
        {
          "indexed": false,
          "internalType": "uint256",
          "name": "list_0f_states",
          "type": "uint256"
        }
      ],
      "name": "countryDetails",
      "type": "event"
    },
    {
      "constant": false,
      "inputs": [
        {
          "internalType": "string",
          "name": "_president",
          "type": "string"
        }
      ],
      "name": "getCountryByPresident",
      "outputs": [],
      "payable": false,
      "stateMutability": "nonpayable",
      "type": "function"
    },
    {
      "constant": false,
      "inputs": [
        {
          "internalType": "string",
          "name": "_name",
          "type": "string"
        },
        {
          "internalType": "string",
          "name": "_president",
          "type": "string"
        },
        {
          "internalType": "uint256",
          "name": "_populations",
          "type": "uint256"
        },
        {
          "internalType": "uint256",
          "name": "_list_of_state",
          "type": "uint256"
        }
      ],
      "name": "CreateCountry",
      "outputs": [],
      "payable": false,
      "stateMutability": "nonpayable",
      "type": "function"
    },
    {
      "constant": false,
      "inputs": [
        {
          "internalType": "string",
          "name": "_president",
          "type": "string"
        },
        {
          "internalType": "uint256",
          "name": "_state",
          "type": "uint256"
        }
      ],
      "name": "UpdateCountry",
      "outputs": [],
      "payable": false,
      "stateMutability": "nonpayable",
      "type": "function"
    },
    {
      "constant": false,
      "inputs": [
        {
          "internalType": "string",
          "name": "_president",
          "type": "string"
        }
      ],
      "name": "deleteCountry",
      "outputs": [],
      "payable": false,
      "stateMutability": "nonpayable",
      "type": "function"
    }
  ],
  "bytecode": "0x60806040523480156200001157600080fd5b506200001c62000149565b60405180608001604052806040518060400160405280600781526020017f4e6967657269610000000000000000000000000000000000000000000000000081525081526020016040518060400160405280600881526020017f4f626173616e6a6f0000000000000000000000000000000000000000000000008152508152602001631908b10081526020016024815250905080600060405180807f4f626173616e6a6f0000000000000000000000000000000000000000000000008152506008019050908152602001604051809103902060008201518160000190805190602001906200010b92919062000171565b5060208201518160010190805190602001906200012a92919062000171565b5060408201518160020155606082015181600301559050505062000220565b6040518060800160405280606081526020016060815260200160008152602001600081525090565b828054600181600116156101000203166002900490600052602060002090601f016020900481019282601f10620001b457805160ff1916838001178555620001e5565b82800160010185558215620001e5579182015b82811115620001e4578251825591602001919060010190620001c7565b5b509050620001f49190620001f8565b5090565b6200021d91905b8082111562000219576000816000905550600101620001ff565b5090565b90565b610de680620002306000396000f3fe608060405234801561001057600080fd5b506004361061004c5760003560e01c80630c206b57146100515780633b41cfa1146101b7578063cae650581461027c578063f8b0153914610337575b600080fd5b6101b56004803603608081101561006757600080fd5b810190808035906020019064010000000081111561008457600080fd5b82018360208201111561009657600080fd5b803590602001918460018302840111640100000000831117156100b857600080fd5b91908080601f016020809104026020016040519081016040528093929190818152602001838380828437600081840152601f19601f8201169050808301925050505050505091929192908035906020019064010000000081111561011b57600080fd5b82018360208201111561012d57600080fd5b8035906020019184600183028401116401000000008311171561014f57600080fd5b91908080601f016020809104026020016040519081016040528093929190818152602001838380828437600081840152601f19601f82011690508083019250505050505050919291929080359060200190929190803590602001909291905050506103f2565b005b61027a600480360360408110156101cd57600080fd5b81019080803590602001906401000000008111156101ea57600080fd5b8201836020820111156101fc57600080fd5b8035906020019184600183028401116401000000008311171561021e57600080fd5b91908080601f016020809104026020016040519081016040528093929190818152602001838380828437600081840152601f19601f820116905080830192505050505050509192919290803590602001909291905050506105ec565b005b6103356004803603602081101561029257600080fd5b81019080803590602001906401000000008111156102af57600080fd5b8201836020820111156102c157600080fd5b803590602001918460018302840111640100000000831117156102e357600080fd5b91908080601f016020809104026020016040519081016040528093929190818152602001838380828437600081840152601f19601f8201169050808301925050505050505091929192905050506108fa565b005b6103f06004803603602081101561034d57600080fd5b810190808035906020019064010000000081111561036a57600080fd5b82018360208201111561037c57600080fd5b8035906020019184600183028401116401000000008311171561039e57600080fd5b91908080601f016020809104026020016040519081016040528093929190818152602001838380828437600081840152601f19601f820116905080830192505050505050509192919290505050610999565b005b6040518060800160405280858152602001848152602001838152602001828152506000846040518082805190602001908083835b602083106104495780518252602082019150602081019050602083039250610426565b6001836020036101000a03801982511681845116808217855250505050505090500191505090815260200160405180910390206000820151816000019080519060200190610498929190610c9c565b5060208201518160010190805190602001906104b5929190610c9c565b5060408201518160020155606082015181600301559050507f1c359fd1860295a27612074fcc6921e9c1197c8354fe31a5302952f37f002f1584848484604051808060200180602001858152602001848152602001838103835287818151815260200191508051906020019080838360005b83811015610542578082015181840152602081019050610527565b50505050905090810190601f16801561056f5780820380516001836020036101000a031916815260200191505b50838103825286818151815260200191508051906020019080838360005b838110156105a857808201518184015260208101905061058d565b50505050905090810190601f1680156105d55780820380516001836020036101000a031916815260200191505b50965050505050505060405180910390a150505050565b6105f4610d1c565b6000836040518082805190602001908083835b6020831061062a5780518252602082019150602081019050602083039250610607565b6001836020036101000a0380198251168184511680821785525050505050509050019150509081526020016040518091039020604051806080016040529081600082018054600181600116156101000203166002900480601f0160208091040260200160405190810160405280929190818152602001828054600181600116156101000203166002900480156107015780601f106106d657610100808354040283529160200191610701565b820191906000526020600020905b8154815290600101906020018083116106e457829003601f168201915b50505050508152602001600182018054600181600116156101000203166002900480601f0160208091040260200160405190810160405280929190818152602001828054600181600116156101000203166002900480156107a35780601f10610778576101008083540402835291602001916107a3565b820191906000526020600020905b81548152906001019060200180831161078657829003601f168201915b50505050508152602001600282015481526020016003820154815250509050818160600181815250507f1c359fd1860295a27612074fcc6921e9c1197c8354fe31a5302952f37f002f158160000151826020015183604001518460600151604051808060200180602001858152602001848152602001838103835287818151815260200191508051906020019080838360005b83811015610851578082015181840152602081019050610836565b50505050905090810190601f16801561087e5780820380516001836020036101000a031916815260200191505b50838103825286818151815260200191508051906020019080838360005b838110156108b757808201518184015260208101905061089c565b50505050905090810190601f1680156108e45780820380516001836020036101000a031916815260200191505b50965050505050505060405180910390a1505050565b6000816040518082805190602001908083835b60208310610930578051825260208201915060208101905060208303925061090d565b6001836020036101000a0380198251168184511680821785525050505050509050019150509081526020016040518091039020600080820160006109749190610d44565b6001820160006109849190610d44565b60028201600090556003820160009055505050565b6109a1610d1c565b6000826040518082805190602001908083835b602083106109d757805182526020820191506020810190506020830392506109b4565b6001836020036101000a0380198251168184511680821785525050505050509050019150509081526020016040518091039020604051806080016040529081600082018054600181600116156101000203166002900480601f016020809104026020016040519081016040528092919081815260200182805460018160011615610100020316600290048015610aae5780601f10610a8357610100808354040283529160200191610aae565b820191906000526020600020905b815481529060010190602001808311610a9157829003601f168201915b50505050508152602001600182018054600181600116156101000203166002900480601f016020809104026020016040519081016040528092919081815260200182805460018160011615610100020316600290048015610b505780601f10610b2557610100808354040283529160200191610b50565b820191906000526020600020905b815481529060010190602001808311610b3357829003601f168201915b505050505081526020016002820154815260200160038201548152505090507f1c359fd1860295a27612074fcc6921e9c1197c8354fe31a5302952f37f002f158160000151826020015183604001518460600151604051808060200180602001858152602001848152602001838103835287818151815260200191508051906020019080838360005b83811015610bf4578082015181840152602081019050610bd9565b50505050905090810190601f168015610c215780820380516001836020036101000a031916815260200191505b50838103825286818151815260200191508051906020019080838360005b83811015610c5a578082015181840152602081019050610c3f565b50505050905090810190601f168015610c875780820380516001836020036101000a031916815260200191505b50965050505050505060405180910390a15050565b828054600181600116156101000203166002900490600052602060002090601f016020900481019282601f10610cdd57805160ff1916838001178555610d0b565b82800160010185558215610d0b579182015b82811115610d0a578251825591602001919060010190610cef565b5b509050610d189190610d8c565b5090565b6040518060800160405280606081526020016060815260200160008152602001600081525090565b50805460018160011615610100020316600290046000825580601f10610d6a5750610d89565b601f016020900490600052602060002090810190610d889190610d8c565b5b50565b610dae91905b80821115610daa576000816000905550600101610d92565b5090565b9056fea265627a7a72315820c4e9f8e70d7b1f760bfc225ef69eeada5b8ba6c7fe7bb75abfc641593530d55d64736f6c63430005100032",
  "source": "// SPDX-License-Identifier: MIT\n\n\npragma solidity >= 0.5.0;\n\ncontract CompanyStructCrud {\n    // a sample crud smart contract\n    /** 1. Create a country and add to a struct\n    2. Read a country from a struct\n    3. Update a country in the struct \n    4. Delete a Country from the struct \n    \n    it should also have events that emit actions don on each of this countract which will be handle from web.py and send as a restful api\n    */\n\n    struct Countries {\n        string name;\n        string current_president;\n        uint populations;\n        uint list_0f_states;\n\n    }\n\n    mapping(string => Countries) Country;\n    event countryDetails (\n        string name,\n        string current_president,\n        uint populations,\n        uint list_0f_states\n    );\n\n    constructor() public {\n        Countries memory firstCountry = Countries(\"Nigeria\", \"Obasanjo\", 420000000, 36);\n        Country[\"Obasanjo\"] = firstCountry;\n    }\n\n\n    function getCountryByPresident(string memory _president) public {\n        Countries memory current_country = Country[_president];\n        emit countryDetails(current_country.name, current_country.current_president, current_country.populations, current_country.list_0f_states);\n\n\n\n    }\n\n    function CreateCountry(string memory _name, string memory _president, uint  _populations, uint  _list_of_state) public {\n        Country[_president] = Countries({name:_name, current_president:_president, populations:_populations, list_0f_states:_list_of_state});\n        emit countryDetails(_name, _president, _populations, _list_of_state);\n\n    }\n\n    function UpdateCountry(string memory _president, uint _state) public {\n        Countries memory countryToEdit = Country[_president];\n        // updating state and pupolations\n        countryToEdit.list_0f_states = _state;\n        emit countryDetails(countryToEdit.name, countryToEdit.current_president, countryToEdit.populations, countryToEdit.list_0f_states);\n\n\n    }\n\n\n\n    function deleteCountry(string memory _president) public {\n        delete Country[_president];\n\n}\n\n}",
  "sourcePath": "/Users/afolabi/projects/crudSol/contracts/crudStruct.sol",
  "compiler": {
    "name": "solc",
    "version": "0.5.16+commit.9c3226ce.Emscripten.clang"
  },
  "schemaVersion": "3.4.1",
  "updatedAt": "2021-06-02T21:53:58.534Z",
  "devdoc": {
    "methods": {}
  },
  "userdoc": {
    "methods": {}
  }
}